S018000053656D65737472616C6E6150726163612E73726563A6
S11300000C944D000C94B6000C946A000C946A0095
S11300100C946A000C946A000C946A000C946A00B4
S11300200C946A000C946A000C946A000C946A00A4
S11300300C946A000C946A000C946A000C946A0094
S11300400C946A000C946A000C949A030C946A0051
S11300500C946A000C946A000C946A000C946A0074
S11300600C946A000C946A001A013E011C011E01E2
S1130070200122012401260128012A012C012E013C
S1130080300132013401360138013A013C024202A6
S113009048024E0254025A02600211241FBECFEFDE
S11300A0D8E0DEBFCDBF11E0A0E0B1E0EAE4F1E1C9
S11300B002C005900D92A839B107D9F721E0A8E94B
S11300C0B1E001C01D92A43AB207E1F70E94CD024B
S11300D00C94A3080C940000FC019AB19B7F9AB97C
S11300E09BB194609BB9F0939901E09398011082BD
S11300F00895E9E6F0E08081682B60838DB3816028
S11301008DBB08951F93CF93DF931F92CDB7DEB7B6
S1130110FC018BB198E098279BB981E08083CE01E4
S113012001960E94650181E090E00E949201182FDF
S113013090E00E949201682F80E090E00E946701A5
S1130140163009F411E061E0610F81E090E00E9453
S1130150670186E091E00E946704CE0101960E9447
S113016066010F90DF91CF911F9108951F920F9216
S11301700FB60F9211242F933F934F935F936F9376
S11301807F938F939F93AF93BF93EF93FF9380914C
S11301909801909199010E948200FF91EF91BF9183
S11301A0AF919F918F917F916F915F914F913F910B
S11301B02F910F900FBE0F901F90189587B18062FA
S11301C087B987B1806187B98AB180688AB984B1F7
S11301D0826084B9089588B1806188B920E030E0F4
S11301E0283031059CF4662324F488B1806288B9F0
S11301F003C088B18F7D88B9660F85B1826085B9E7
S113020085B18D7F85B92F5F3F4FEACF8BB1806871
S11302108BB98BB18F778BB988B18F7E88B90895EC
S1130220462F50E04231510538F5FA01EC5CFF4F9E
S11302300C94EC036FE323C06BE521C06FE41FC093
S113024066E61DC06DE61BC06DEF19C067E017C000
S11302506FE715C06FEE13C067E711C06CE70FC0FE
S113026068E50DC06EE50BC069E709C061E707C02A
S113027069E405C060E803C060E001C066E00E9474
S1130280EB00089587B1846087B987B1877F87B908
S1130290089528E22A95F1F788B1846088B988E244
S11302A08A95F1F788B18B7F88B9339904C024E02B
S11302B02A95F1F7FACF80E090E0339B05C028EE51
S11302C02A95F1F70196F9CF089508950895F999BB
S11302D0FECF92BD81BD60BD8FB384608FBB8FB3F1
S11302E082608FBB089562E081E090E00E94670124
S11302F062E782E090E00E94670167E683E090E0B5
S11303000E94670162E684E090E00E94670160E772
S113031085E090E00E94670167E786E090E00E9434
S113032067010895F999FECF92BD81BD8FB38160B5
S11303308FBB80B508958AB180648AB98AB1886018
S11303408AB98AB180628AB98BB180628BB98BB168
S113035088608BB98BB180648BB914BC15BC84B52F
S1130360816084BD84B5826084BD85B5846085BDAB
S1130370E0EBF0E080818160808380818260808313
S1130380E1EBF0E0808182608083808184608083FF
S11303900895662321F08BB18F7B8BB903C08BB199
S11303A080648BB9442321F08BB1877F8BB903C060
S11303B08BB188608BB9222321F08BB18F7D8BB9EF
S11303C008958BB180628BB9089581E090E086171F
S11303D0970744F4E7EBFBE03197F1F700C0000026
S11303E00196F5CF089561110AC084B58F7B84BD51
S11303F084B58F7784BD8BB180648BB907C084B515
S1130400806484BD84B5806884BD67BD41110CC01F
S1130410E0EBF0E080818F7E808380818F7D80831C
S11304208BB188608BB90AC0E0EBF0E08081806119
S113043080838081806280834093B40021110AC04C
S113044084B58F7E84BD84B58F7D84BD8BB180627D
S11304508BB9089584B5806184BD84B5806284BD00
S113046028BD0895462F50E04730510578F5FA012C
S1130470EA5BFF4F0C94EC0320E040E061E00E9453
S1130480C901089520E041E060E00E94C901089597
S113049021E040E060E00E94C901089521E040E0CD
S11304A061E00E94C901089521E041E061E00E94F9
S11304B0C901089520E040E060E00E94C901089568
S11304C026EE4EE16AEF0E94F301089520E040E039
S11304D060E00E94C9010895BF92CF92DF92EF922B
S11304E0FF920F931F93CF93DF93EC01B62E141654
S11304F0150614F041E050E088EE93E0289FF001E7
S1130500299FF00D1124BA010E94D803F62EE72E7C
S1130510660F771FE617F7070CF4FB01CF010E9463
S1130520D8036B0100E010E00C151D05BCF46B2D25
S1130530CE010E9432026F2D7E2DCE010E94E50174
S113054020E040E060E0CE010E94C9016F2D7E2DC5
S1130550CE010E94E5010F5F1F4FE6CFDF91CF91DF
S11305601F910F91FF90EF90DF90CF90BF9008956F
S1130570673649F018F4623671F00BC0603739F011
S1130580623719F006C081E0089580E0089583E0A1
S1130590089584E0089582E00895CF93DF93CDB762
S11305A0DEB727970FB6F894DEBF0FBECDBFCE01DE
S11305B001960E949B01CE0102960E94DE00CE01AC
S11305C003960E945003CE0105960E946C00CE0152
S11305D006960E944201CE0107960E94650182E2BE
S11305E091E00E94670462E0CE0105960E947900C2
S11305F0CE0107960E947301789480E090E00E94F7
S11306009201682FCE0101960E94B802D82ECE0125
S113061006960E944901282F392F8AEF90E0622F15
S1130620732F0E94D803162F072FE62EF72E7F93E1
S11306306F933F932F9387E591E09F938F930E944D
S113064051040F900F900F900F900F900F9080E136
S1130650E816F10434F4612FCE0102960E941001D1
S113066005C060E1CE0102960E94100121E0412FF5
S1130670502F6D2DCE0101960E946C02BECF909139
S1130680C00095FFFCCF8093C60080E090E0089501
S11306908091C0008823E4F78091C60090E008951B
S11306A0EF92FF920F931F93CF93DF931F92CDB7D7
S11306B0DEB77C01CE0101960E94650160E081E015
S11306C090E00E9467018AB182608AB91092C500E5
S11306D08DE48093C400E2ECF0E080818660808346
S11306E001EC10E0F80180818861808368E473E0A4
S11306F08FE393E00E940604F70191838083EAE983
S1130700F1E09183808393838283F8018081806800
S11307108083E0ECF0E0808180688083CE010196E4
S11307200E9466010F90DF91CF911F910F91FF906E
S1130730EF9008951F920F920FB60F9211242F93EA
S11307403F934F935F936F937F938F939F93AF9355
S1130750BF93EF93FF93CF93DF931F92CDB7DEB791
S1130760F894CE0101960E9465016091C60080E074
S113077090E00E94670186E891E00E946704789403
S1130780CE0101960E9466010F90DF91CF91FF91F7
S1130790EF91BF91AF919F918F917F916F915F91F5
S11307A04F913F912F910F900FBE0F901F9018956E
S11307B097FB072E16F4009407D077FD09D00E940A
S11307C0F20307FC05D03EF4909581959F4F089560
S11307D0709561957F4F0895EE0FFF1F0590F4917A
S11307E0E02D0994AA1BBB1B51E107C0AA1FBB1F24
S11307F0A617B70710F0A61BB70B881F991F5A95A9
S1130800A9F780959095BC01CD0108950F931F938E
S1130810CF93DF93009731F46115710519F480E0EB
S113082090E03AC08B01EC016EE070E081E090E072
S11308300E947806FC01892B91F380E883830115DB
S1130840110571F01387028781E8838380919A01EF
S113085090919B01892B21F4F0939B01E0939A01E1
S11308602097C9F0D187C087838182608383809178
S11308709C0190919D01892B71F4F0939D01E0936B
S11308809C0180919E0190919F01892B21F4F0930A
S11308909F01E0939E01CF01DF91CF911F910F91B2
S11308A00895A0E0B0E0E7E5F4E00C947C08AE0124
S11308B04B5F5F4FFA0161917191AF0180919C018F
S11308C090919D010E949704E2E00C9498080F9384
S11308D01F93CF93DF93E0919C01F0919D012381BD
S11308E021FF1BC08C01D0E0C0E0F80181918F0191
S11308F060919C0170919D01DB011896ED91FC9132
S11309001997882331F00995892B79F3DFEFCFEF1D
S1130910ECCF8AE00995892B19F08FEF9FEF02C085
S11309208D2F9C2FDF91CF911F910F910895ABE0F4
S1130930B0E0EDE9F4E00C946C086C017B018A01F1
S1130940FC0117821682838181FFCCC1CE010196FE
S11309503C01F6019381F70193FD859193FF819109
S11309607F01882309F4BAC1853239F493FD859156
S113097093FF81917F01853229F4B60190E00E94B2
S1130980D207E7CF912C212C312CFFE1F315D8F0BD
S11309908B3279F038F4803279F08332A1F4232D4C
S11309A020611DC08D3261F0803369F4232D2160F4
S11309B016C0832D8260382EE32DE4603E2E2AC0BB
S11309C0F32DF8601DC037FC2DC020ED280F2A3010
S11309D040F08E32B9F436FC81C1232D2064322ECE
S11309E019C036FE06C08AE0989E200D1124922E6E
S11309F011C0EAE02E9E200D1124222EF32DF06268
S1130A003F2E08C08C3621F4832D8068382E02C016
S1130A10883641F4F70193FD859193FF81917F011D
S1130A208111B3CF982F9F7D9554933028F40C5F98
S1130A301F4F9FE399830DC0833631F0833771F0E4
S1130A40833509F059C021C0F801808189830E5F84
S1130A501F4F88248394912C530113C02801F2E082
S1130A604F0E511CF801A080B18036FE03C0692DE1
S1130A7070E002C06FEF7FEFC5010E94C7074C0111
S1130A808201F32DFF773F2E16C0280122E0420E8B
S1130A90511CF801A080B18036FE03C0692D70E0BE
S1130AA002C06FEF7FEFC5010E94B5074C01F32D23
S1130AB0F0683F2E820133FC1BC0822D90E0881623
S1130AC09906B0F4B60180E290E00E94D2072A941D
S1130AD0F4CFF50137FC859137FE81915F01B601B2
S1130AE090E00E94D20721102A9421E0821A9108F2
S1130AF08114910471F7E8C0843611F0893641F508
S1130B00F80137FE07C060817181828193810C5F97
S1130B101F4F08C060817181072E000C880B990B50
S1130B200E5F1F4FF32DFF763F2E97FF09C0909560
S1130B308095709561957F4F8F4F9F4FF0683F2E42
S1130B402AE030E0A3010E940E08882E861845C0D2
S1130B50853731F4232D2F7EB22E2AE030E025C0D4
S1130B60932D997FB92E8F36C1F018F4883579F01A
S1130B70B5C0803719F0883721F0B0C0E92FE061A3
S1130B80BE2EB4FE0DC0FB2DF460BF2E09C034FE92
S1130B900AC0292F2660B22E06C028E030E005C026
S1130BA020E130E002C020E132E0F801B7FE07C0E6
S1130BB060817181828193810C5F1F4F06C06081C7
S1130BC0718180E090E00E5F1F4FA3010E940E0828
S1130BD0882E8618FB2DFF773F2E36FE0DC0232D61
S1130BE02E7FA22E891458F434FE0BC032FC09C0A7
S1130BF0832D8E7EA82E05C0B82CA32C03C0B82C40
S1130C0001C0B92CA4FE0FC0FE01E80DF11D8081C6
S1130C10803321F49A2D997EA92E09C0A2FE06C024
S1130C20B394B39404C08A2D867809F0B394A3FCDA
S1130C3011C0A0FE06C0B21488F4280C922C9B1894
S1130C400EC0B21460F4B60180E290E00E94D207B4
S1130C50B394F7CFB21418F42B1802C0982C212C9B
S1130C60A4FE10C0B60180E390E00E94D207A2FE69
S1130C7017C0A1FC03C088E790E002C088E590E0BB
S1130C80B6010CC08A2D867859F0A1FE02C08BE211
S1130C9001C080E2A7FC8DE2B60190E00E94D20779
S1130CA0891438F4B60180E390E00E94D2079A9444
S1130CB0F7CF8A94F301E80DF11D8081B60190E02D
S1130CC00E94D2078110F5CF222009F442CEB6014A
S1130CD080E290E00E94D2072A94F6CFF601868142
S1130CE0978102C08FEF9FEF2B96E2E10C94880866
S1130CF00F931F93CF93DF93869F8001879F100DDF
S1130D00969F100D1124C8010E949406EC010097CF
S1130D1029F0A80160E070E00E94C007CE01DF91D5
S1130D20CF911F910F9108950F931F93CF93DF934A
S1130D308230910510F482E090E0E091A201F091FC
S1130D40A30120E030E0A0E0B0E0309719F1408149
S1130D5051810281138148175907C8F084179507F8
S1130D6069F4109731F012960C93129713961C9312
S1130D7027C00093A2011093A30122C021153105BD
S1130D8019F04217530718F49A01BD01EF01DF016E
S1130D90F801DBCF21153105F9F0281B390B24307C
S1130DA0310580F48A819B816115710521F0FB0175
S1130DB09383828304C09093A3018093A201FE01D4
S1130DC0329644C0FE01E20FF31F819391932250A7
S1130DD03109398328833AC02091A0013091A101BF
S1130DE0232B41F420910201309103013093A1019E
S1130DF02093A001209100013091010121153105BA
S1130E0041F42DB73EB74091040150910501241BD4
S1130E10350BE091A001F091A101E217F307A0F4D2
S1130E202E1B3F0B2817390778F0AC014E5F5F4F3C
S1130E302417350748F04E0F5F1F5093A1014093CC
S1130E40A0018193919302C0E0E0F0E0CF01DF9133
S1130E50CF911F910F910895CF93DF93009709F4D9
S1130E6081C0FC01329713821282A091A201B09139
S1130E70A301109781F420813181820F931F209167
S1130E80A0013091A1012817390751F5F093A10170
S1130E90E093A00167C0ED0120E030E0CE17DF074A
S1130EA040F44A815B819E0141155105F1F0EA014C
S1130EB0F5CFD383C28340815181840F951FC81716
S1130EC0D90759F488819981840F951F02969183DB
S1130ED080838A819B81938382832115310529F440
S1130EE0F093A301E093A2013DC0E901FB83EA83EF
S1130EF049915991C40FD51FEC17FD0761F4808106
S1130F009181840F951F0296E901998388838281D8
S1130F1093819B838A83E0E0F0E012968D919C910B
S1130F201397009719F0FD01DC01F7CF8D919C9187
S1130F3011979D012E5F3F4F820F931F2091A001B7
S1130F403091A1012817390769F4309729F41092D8
S1130F50A3011092A20102C013821282B093A101D4
S1130F60A093A001DF91CF910895FC0105906150F9
S1130F7070400110D8F7809590958E0F9F1F0895AB
S1130F80DC0101C06D9341505040E0F70895FC012D
S1130F906150704001900110D8F7809590958E0FA4
S1130FA09F1F08950F931F93CF93DF93FB0123811A
S1130FB021FD03C08FEF9FEF2CC022FF16C0468196
S1130FC05781248135814217530744F4A081B181AC
S1130FD09D012F5F3F4F318320838C93268137817E
S1130FE02F5F3F4F3783268314C08B01EC01FB0135
S1130FF00084F185E02D0995892BE1F6D801169638
S11310008D919C911797019617969C938E931697A2
S1131010CE01DF91CF911F910F910895FA01AA2774
S1131020283051F1203181F1E8946F936E7F6E5F27
S11310307F4F8F4F9F4FAF4FB1E03ED0B4E03CD0D5
S1131040670F781F891F9A1FA11D680F791F8A1FB8
S1131050911DA11D6A0F711D811D911DA11D20D01F
S113106009F468943F912AE0269F11243019305DD9
S11310703193DEF6CF010895462F4770405D4193CA
S1131080B3E00FD0C9F7F6CF462F4F70405D4A3317
S113109018F0495D31FD4052419302D0A9F7EACFDF
S11310A0B4E0A6959795879577956795BA95C9F70E
S11310B000976105710508959B01AC010A2E069401
S11310C05795479537952795BA95C9F7620F731FBA
S11310D0841F951FA01D08952F923F924F925F92F7
S11310E06F927F928F929F92AF92BF92CF92DF9234
S11310F0EF92FF920F931F93CF93DF93CDB7DEB799
S1131100CA1BDB0B0FB6F894DEBF0FBECDBF09942C
S11311102A88398848885F846E847D848C849B8483
S1131120AA84B984C884DF80EE80FD800C811B8191
S1131130AA81B981CE0FD11D0FB6F894DEBF0FBEC0
S10D1140CDBFED010895F894FFCF30
S113114A0000A4012000546C616369746B6F6D2004
S113115A7361207A6D656E696C6120666172626181
S113116A0D002D2D2D2D2D2D2D2D2D2D2D2D2D2DEE
S113117A2D2D53544152542050524F4752414D55EC
S113118A2D2D2D2D2D2D2D2D2D2D2D2D2D2D2D2D81
S113119A2D2D2D2D2D0D0044697374616E63652008
S11311AA697320256420636D2C20667265717565E8
S11311BA6E6379206F66206C6564206973202564E8
S11311CA20487A0D0A004661726261207361207AAE
S10B11DA6D656E696C610D0086
S9030000FC
